S018000050574D204F7363696C6C6F73636F70652E7372656309
S11300000C9431000C94A6040C94D3040C940005B5
S11300100C9429060C9435060C9475050C94A205D1
S11300200C94CF050C94FC050C9441060C944D06DD
S11300300C9468050C944E000C944E000C944E00E5
S11300400C944E000C944E000C944E000C944E00F4
S11300500C944E0072008700B100B800BF00C600C7
S1130060CD0011241FBECFE5D8E0DEBFCDBF10E028
S1130070A0E6B0E0E4E0FDE002C005900D92AA36EF
S1130080B107D9F722E0AAE6B0E001C01D92AF396A
S1130090B207E1F70E9450000C9480060C94000013
S11300A00E94720201E021E147E060E087E00E94E3
S11300B0FC0221E14AE06FE08AE00E94FC0221E0B8
S11300C04AE060E58FE00E941003FFCFFB0110823D
S11300D090E08730910508F067C0FC01E65DFF4FB2
S11300E00C947A06E0E6F0E020819181428130E0D0
S11300F0220F331F220F331F892F90E0880F991F7F
S11301002062822B842BFB01808380E00895809100
S11301106300882351F0813061F0823071F08330C4
S113012081F441E091E080E00FC040E090E080E0A5
S11301300BC041E090E080E007C040E091E080E047
S113014003C040E090E082E081112FC0292F30E00D
S1130150220F331F220F331F242B2860FB0120831F
S11301600895809164008064FB01808380E0089599
S1130170809165008068FB01808380E00895809110
S113018066008460FB01808380E0089580916700AD
S11301908061FB01808380E008958091680080681D
S11301A0FB01808380E0089582E00895009751F078
S11301B0FC012081203340F4269526952695208342
S11301C080E0089583E0089582E008951F93CF931B
S11301D0DF931F92CDB7DEB7182FCE0101960E9490
S11301E05E058981811115C040E064E081E00E94D0
S11301F0200400C000C0812F0E94480500C000C038
S113020041E064E081E00E94200400C000C080E07E
S113021001C084E00F90DF91CF911F910895CF9397
S1130220DF931F92CDB7DEB7BE016F5F7F4F0E9491
S1130230660040E063E081E00E94200489810E941E
S1130240E6000F90DF91CF910895CF93C82F41E03E
S113025063E081E00E9420048C2F0E94E600CF918D
S11302600895FF920F931F93CF93DF931F92CDB7FF
S1130270DEB789836435C8F58033C8F54230C8F5E4
S1130280F42E162F082F0770CE0101960E94D60077
S1130290498184E5489FF0011124E659FF4FE10F9D
S11302A0F11D808121E030E0002E02C0220F331FB7
S11302B00A94E2F7209528238F2D90E002C0880F3E
S11302C0991F0A95E2F7022F082B0083E0E6F0E07D
S11302D04483158382E00E940F0183E00E940F0192
S11302E0802F0E94250180E005C082E003C082E0E7
S11302F001C082E00F90DF91CF911F910F91FF9089
S11303000895EF92FF920F931F93CF93DF93C82F1B
S1130310162F022F803340F4643540F4223040F429
S1130320413340F080E007C080E005C080E003C0B6
S113033080E001C081E08823C9F0E42EF12CEC0EAA
S1130340F11CDC2FD40F0EC080E3E816F10424F076
S1130350C03310F0D053C0E0402F612F8C2F0E9487
S11303603101CF5FDC1780F780E001C082E0DF91CC
S1130370CF911F910F91FF90EF900895EF92FF920C
S11303800F931F93CF93DF93182FC62F022F803321
S113039040F4643540F4223040F4453540F080E0C8
S11303A007C080E005C080E003C080E001C081E0B8
S11303B08823C9F0E42EF12CEC0EF11CDC2FD40FB1
S11303C00EC084E5E816F10424F0C43510F0D455C9
S11303D0C0E0402F6C2F812F0E943101CF5FDC17CA
S11303E080F780E001C082E0DF91CF911F910F91EF
S11303F0FF90EF9008958F929F92AF92BF92CF9209
S1130400DF92EF92FF920F931F93CF93DF9300D06D
S113041000D0CDB7DEB7D82EE62EC42E122F842FEF
S113042090E08D1991099C838B83822F90E0861B29
S113043091099A838983CE0103960E941303CE0106
S113044001960E941303AB80BC8089809A808A1431
S11304509B0430F4ED24DE24ED241C25C1261C2548
S11304601E1530F4E1261E25E126DC24CD24DC24EF
S1130470812F90E0F12C8E199F099A8389838C2D0A
S113048090E08D1991099C838B83CE0103960E9481
S1130490130311C08A149B0430F4402F6D2D8E2D4C
S11304A00E94310105C0402F6E2D8D2D0E94310117
S11304B08FEFE81AF80A812F90E08E159F0550F708
S11304C081E00F900F900F900F90DF91CF911F91CB
S11304D00F91FF90EF90DF90CF90BF90AF909F90DF
S11304E08F9008950F931F93CF93DF931F92CDB7EF
S11304F0DEB741E065E081E00E942C0341E067E063
S113050081E00E942C0341E064E081E00E94200429
S113051041E064E081E00E942C0341E062E081E07C
S11305200E94200441E062E081E00E942C0341E04B
S113053063E081E00E942C030E942B0540E064E00C
S113054081E00E94200440E062E081E00E94A60372
S113055000C000C041E062E081E00E94A603BE0149
S11305606F5F7F4F80E00E94660089810E94E600F1
S1130570BE016F5F7F4F81E00E94660089810E9407
S1130580E60000E610E081E0F8018283BE016F5FBF
S11305907F4F80E00E94660089810E94E600BE01D0
S11305A06F5F7F4F84E00E94660089810E94E600AD
S11305B0BE016F5F7F4F85E00E94660089810E94C3
S11305C0E600BE016F5F7F4F86E00E94660089816E
S11305D00E94E600F8011282BE016F5F7F4F80E047
S11305E00E94660089810E94E60081E00F90DF91FD
S11305F0CF911F910F9108950F93261305C0481BA7
S1130600202F0E9481010AC0481306C0422F461BB6
S1130610202F0E94BE0102C00E94FB010F91089589
S11306200E94BE0108950097A9F0FC014081518108
S11306306281738177233CF4709560955095419560
S11306405F4F6F4F7F4FFC014083518362837383FD
S113065080E0089583E00895843008F06FC0683026
S113066008F06EC0423008F06DC08130F9F030F00F
S11306708230A1F1833009F449C066C02AB381E015
S113068090E0062E02C0880F991F0A94E2F7809525
S113069082238ABB2AB3842F90E002C0880F991F5B
S11306A06A95E2F7822B8ABB80E0089587B321E044
S11306B030E0062E02C0220F331F0A94E2F7209581
S11306C0282327BB27B3842F90E002C0880F991FEB
S11306D06A95E2F7822B87BB80E0089584B321E01A
S11306E030E0062E02C0220F331F0A94E2F7209551
S11306F0282324BB24B3842F90E002C0880F991FC1
S11307006A95E2F7822B84BB80E0089581B321E0EF
S113071030E0062E02C0220F331F0A94E2F7209520
S1130720282321BB21B3842F90E002C0880F991F96
S11307306A95E2F7822B81BB80E0089582E00895F8
S113074082E0089582E0089580E00895843008F0FE
S11307506FC0683008F06EC0423008F06DC0813060
S1130760F9F030F08230A1F1833009F449C066C059
S11307702BB381E090E0062E02C0880F991F0A94E3
S1130780E2F7809582238BBB2BB3842F90E002C0C9
S1130790880F991F6A95E2F7822B8BBB80E008953E
S11307A088B321E030E0062E02C0220F331F0A94E2
S11307B0E2F72095282328BB28B3842F90E002C0B9
S11307C0880F991F6A95E2F7822B88BB80E0089511
S11307D085B321E030E0062E02C0220F331F0A94B5
S11307E0E2F72095282325BB25B3842F90E002C08F
S11307F0880F991F6A95E2F7822B85BB80E00895E4
S113080082B321E030E0062E02C0220F331F0A9487
S1130810E2F72095282322BB22B3842F90E002C064
S1130820880F991F6A95E2F7822B82BB80E00895B6
S113083082E0089582E0089582E0089580E00895BA
S1130840843008F07BC0683008F07AC0423008F089
S113085079C0813011F130F08230D1F1833009F464
S113086052C072C0413061F42BB381E090E002C009
S1130870880F991F6A95E2F7822B8BBB80E008955D
S11308802BB381E090E002C0880F991F6A95E2F7CC
S1130890809582238BBB80E00895413061F428B3B6
S11308A081E090E002C0880F991F6A95E2F7822BDD
S11308B088BB80E0089528B381E090E002C0880FEF
S11308C0991F6A95E2F78095822388BB80E008959A
S11308D0413061F425B381E090E002C0880F991F94
S11308E06A95E2F7822B85BB80E0089525B381E009
S11308F090E002C0880F991F6A95E2F780958223E1
S113090085BB80E00895413061F422B381E090E03A
S113091002C0880F991F6A95E2F7822B82BB80E0A0
S1130920089522B381E090E002C0880F991F6A9570
S1130930E2F78095822382BB80E0089582E00895E7
S113094082E0089582E0089580E008951F920F9256
S11309500FB60F9211242F933F934F935F936F938E
S11309607F938F939F93AF93BF93EF93FF93E09104
S11309706802F0916902309729F0809162029091A7
S113098063020995FF91EF91BF91AF919F918F9170
S11309907F916F915F914F913F912F910F900FBE77
S11309A00F901F9018951F920F920FB60F9211245B
S11309B02F933F934F935F936F937F938F939F9363
S11309C0AF93BF93EF93FF93E0916A02F0916B02B0
S11309D0309729F080916402909165020995FF9106
S11309E0EF91BF91AF919F918F917F916F915F91A3
S11309F04F913F912F910F900FBE0F901F9018951C
S1130A001F920F920FB60F9211242F933F934F937F
S1130A105F936F937F938F939F93AF93BF93EF9362
S1130A20FF93E0916C02F0916D02309719F082E02F
S1130A3090E00995FF91EF91BF91AF919F918F91B4
S1130A407F916F915F914F913F912F910F900FBEC6
S1130A500F901F9018958DB180618DB98DB18C7FE9
S1130A608DB98DB183608DB98EB18E7F8EB98DB104
S1130A708F778DB98DB1877F8DB98DB18B7F8DB90E
S1130A808DB18F7D8DB98DB180648DB981E008956C
S1130A9090916E02913071F091110EC08FB981E086
S1130AA080936E0201C08FB1779BFDCF10926E02CE
S1130AB080E0089584E0089581E00895009731F07E
S1130AC020916E02FC01208380E0089583E0089564
S1130AD01F920F920FB60F9211246C9910926E020E
S1130AE00F900FBE0F901F9018951F920F920FB684
S1130AF00F9211242F933F934F935F936F937F93A0
S1130B008F939F93AF93BF93EF93FF93E0917702FB
S1130B10F0917802309729F080916F0290917002E1
S1130B200995FF91EF91BF91AF919F918F917F9123
S1130B306F915F914F913F912F910F900FBE0F9046
S1130B401F9018951F920F920FB60F9211242F9396
S1130B503F934F935F936F937F938F939F93AF9341
S1130B60BF93EF93FF93E0917902F0917A0230976B
S1130B7029F080917102909172020995FF91EF9191
S1130B80BF91AF919F918F917F916F915F914F91A1
S1130B903F912F910F900FBE0F901F9018951F92A9
S1130BA00F920FB60F9211242F933F934F935F939D
S1130BB06F937F938F939F93AF93BF93EF93FF9321
S1130BC0E0917B02F0917C02309729F080917302CE
S1130BD0909174020995FF91EF91BF91AF919F910C
S1130BE08F917F916F915F914F913F912F910F90D2
S1130BF00FBE0F901F9018951F920F920FB60F9271
S1130C0011242F933F934F935F936F937F938F930D
S1130C109F93AF93BF93EF93FF93E0917D02F09185
S1130C207E02309729F080917502909176020995A1
S1130C30FF91EF91BF91AF919F918F917F916F91B0
S1130C405F914F913F912F910F900FBE0F901F9086
S1130C501895E0918F02F0919002309729F08091DD
S1130C607F029091800209950895E0918F02F0919E
S1130C709002309729F080917F029091800209952B
S1130C800895E0919B02F0919C02309729F08091A5
S1130C908B0290918C02099508951F920F920FB6C2
S1130CA00F9211242F933F934F935F936F937F93EE
S1130CB08F939F93AF93BF93EF93FF93E0919D0224
S1130CC0F0919E02309729F080918D0290918E02CE
S1130CD00995FF91EF91BF91AF919F918F917F9172
S1130CE06F915F914F913F912F910F900FBE0F9095
S1130CF01F901895EE0FFF1F0590F491E02D0994B5
S1070D00F894FFCF91
S10D0D0400000002000000043800A3
S9030000FC
