:100000000C942A000C944A000C9477000C94A400E1
:100010000C9490010C949C010C94DC000C9409014C
:100020000C9436010C9463010C94A8010C94B40157
:100030000C94CF000C9447000C9447000C9447009C
:100040000C9447000C9447000C9447000C94470014
:100050000C94470011241FBECFE5D8E0DEBFCDBF12
:1000600010E0A0E6B0E0E6ECF3E002C005900D92EF
:10007000A036B107D9F720E0A0E6B0E001C01D929C
:10008000AD39B207E1F70E9449000C94E1010C94EC
:100090000000FFCF1F920F920FB60F9211242F93E3
:1000A0003F934F935F936F937F938F939F93AF9300
:1000B000BF93EF93FF93E0916600F0916700309754
:1000C00029F080916000909161000995FF91EF9176
:1000D000BF91AF919F918F917F916F915F914F9160
:1000E0003F912F910F900FBE0F901F9018951F9268
:1000F0000F920FB60F9211242F933F934F935F935C
:100100006F937F938F939F93AF93BF93EF93FF93DF
:10011000E0916800F0916900309729F080916200C9
:10012000909163000995FF91EF91BF91AF919F91DD
:100130008F917F916F915F914F913F912F910F9090
:100140000FBE0F901F9018951F920F920FB60F922F
:1001500011242F933F934F935F936F937F938F93CC
:100160009F93AF93BF93EF93FF93E0916A00F09159
:100170006B00309719F082E090E00995FF91EF91C4
:10018000BF91AF919F918F917F916F915F914F91AF
:100190003F912F910F900FBE0F901F9018951F92B7
:1001A0000F920FB60F9211246C9910926C000F9061
:1001B0000FBE0F901F9018951F920F920FB60F92BF
:1001C00011242F933F934F935F936F937F938F935C
:1001D0009F93AF93BF93EF93FF93E0917500F091DE
:1001E0007600309729F080916D0090916E0009950E
:1001F000FF91EF91BF91AF919F918F917F916F91FF
:100200005F914F913F912F910F900FBE0F901F90D4
:1002100018951F920F920FB60F9211242F933F93B0
:100220004F935F936F937F938F939F93AF93BF93FE
:10023000EF93FF93E0917700F0917800309729F0E9
:1002400080916F00909170000995FF91EF91BF919F
:10025000AF919F918F917F916F915F914F913F915E
:100260002F910F900FBE0F901F9018951F920F9215
:100270000FB60F9211242F933F934F935F936F9379
:100280007F938F939F93AF93BF93EF93FF93E091EF
:100290007900F0917A00309729F080917100909167
:1002A00072000995FF91EF91BF91AF919F918F914E
:1002B0007F916F915F914F913F912F910F900FBE62
:1002C0000F901F9018951F920F920FB60F92112446
:1002D0002F933F934F935F936F937F938F939F934E
:1002E000AF93BF93EF93FF93E0917B00F0917C007D
:1002F000309729F080917300909174000995FF91D7
:10030000EF91BF91AF919F918F917F916F915F918D
:100310004F913F912F910F900FBE0F901F90189506
:10032000E0918D00F0918E00309729F080917D0052
:1003300090917E0009950895E0918D00F0918E00D6
:10034000309729F080917D0090917E000995089565
:10035000E0919900F0919A00309729F080918900FE
:1003600090918A00099508951F920F920FB60F92EF
:1003700011242F933F934F935F936F937F938F93AA
:100380009F93AF93BF93EF93FF93E0919B00F09106
:100390009C00309729F080918B0090918C000995FA
:1003A000FF91EF91BF91AF919F918F917F916F914D
:1003B0005F914F913F912F910F900FBE0F901F9023
:0603C0001895F894FFCF30
:00000001FF
