S018000050574D204F7363696C6C6F73636F70652E7372656309
S11300000C9431000C9446050C9473050C94A005D3
S11300100C94C9060C94D5060C9415060C9442064F
S11300200C946F060C949C060C94E1060C94ED065B
S11300300C9408060C944E000C944E000C944E0044
S11300400C944E000C944E000C944E000C944E00F4
S11300500C944E0070008500AF00B600BD00C400D3
S1130060CB0011241FBECFE5D8E0DEBFCDBF15E025
S1130070A0E6B0E0E8E0F2E102C005900D92AA36F5
S1130080B107D9F727E0AAE6B5E001C01D92AF3960
S1130090B207E1F70E9450000C9402090C9400008E
S11300A00E94250201E020E040E06CE57CE384E965
S11300B095EC0E94AF0226E040E060E070E080E44E
S11300C090E40E94AF02FFCFFB01108290E08730E2
S11300D0910508F067C0FC01E65DFF4F0C94FC0835
S11300E0E0E6F0E020819181428130E0220F331F6D
S11300F0220F331F892F90E0880F991F2062822BD3
S1130100842BFB01808380E0089580916300882321
S113011051F0813061F0823071F0833081F441E03C
S113012091E080E00FC040E090E080E00BC041E04F
S113013090E080E007C040E091E080E003C040E050
S113014090E082E081112FC0292F30E0220F331F6D
S1130150220F331F242B2860FB01208308958091F4
S113016064008064FB01808380E0089580916500D1
S11301708068FB01808380E008958091660084603C
S1130180FB01808380E00895809167008061FB011A
S1130190808380E00895809168008068FB018083FB
S11301A080E0089582E00895009751F0FC012081D9
S11301B0203340F4269526952695208380E00895E3
S11301C083E0089582E008951F93CF93DF931F92F5
S11301D0CDB7DEB7182FCE0101960E94FE058981A6
S11301E0811115C040E064E081E00E94C00400C0B9
S11301F000C0812F0E94E80500C000C041E064E017
S113020081E00E94C00400C000C080E001C084E01E
S11302100F90DF91CF911F910895CF93DF931F9299
S1130220CDB7DEB7BE016F5F7F4F0E94640040E030
S113023063E081E00E94C00489810E94E4000F9081
S1130240DF91CF910895CF93C82F41E063E081E01F
S11302500E94C0048C2F0E94E400CF910895FF9265
S11302600F931F93CF93DF931F92CDB7DEB789838C
S11302706435C8F58033C8F54230C8F5F42E162F1E
S1130280082F0770CE0101960E94D400498184E5AD
S1130290489FF0011124E659FA4FE10FF11D8081C6
S11302A021E030E0002E02C0220F331F0A94E2F74F
S11302B0209528238F2D90E002C0880F991F0A955E
S11302C0E2F7022F082B0083E0E6F0E04483158375
S11302D082E00E940D0183E00E940D01802F0E94A4
S11302E0230180E005C082E003C082E001C082E017
S11302F00F90DF91CF911F910F91FF900895AF92CE
S1130300BF92CF92DF92EF92FF920F931F93CF93FE
S1130310DF931F92CDB7DEB7A82E162F198264354E
S113032028F48FE28A1520F480E003C080E001C045
S113033081E0453520F4213320F090E003C090E0C3
S113034001C091E030E06901CA0CD11C50E07A018F
S1130350E10EF11C882349F1023048F5992349F153
S1130360CE0101960E94D400E0E6F0E08981848306
S1130370158382E00E940D0183E00E940D010EC0EE
S1130380402F612F8B2D0E942F01B39401C0BA2CF2
S11303908B2D90E08C159D059CF31F5F812F90E0C1
S11303A08E159F05A4F380E005C082E003C082E0BF
S11303B001C082E00F90DF91CF911F910F91FF90C8
S11303C0EF90DF90CF90BF90AF900895CF92DF92DF
S11303D0EF92FF920F931F93CF93DF93C82EF62EC5
S11303E0E42ED22E00E028E045E06E2D8F2D0E94F1
S11303F07F0110E01EC08C2D90E0FC01EE0FFF1F6A
S1130400EE0FFF1FE80FF91FE10FF11DE759FF4F32
S1130410D081C0E00BC0D0FF07C04D2D612F6E0D01
S11304208C2F8F0D0E942F01CF5FD695C83098F383
S11304301F5F153000F382E0DF91CF911F910F9180
S1130440FF90EF90DF90CF9008950F931F93CF9379
S1130450DF931F92CDB7DEB741E065E081E00E94F3
S1130460CC0341E067E081E00E94CC0341E064E01A
S113047081E00E94C00441E064E081E00E94CC037A
S113048041E062E081E00E94C00441E062E081E07A
S11304900E94CC0341E063E081E00E94CC030E940F
S11304A0CB0540E064E081E00E94C00440E062E0EB
S11304B081E00E94460400C000C041E062E081E0A7
S11304C00E944604BE016F5F7F4F80E00E9464007B
S11304D089810E94E400BE016F5F7F4F81E00E942A
S11304E0640089810E94E40000E610E081E0F801E4
S11304F08283BE016F5F7F4F80E00E946400898128
S11305000E94E400BE016F5F7F4F84E00E9464009C
S113051089810E94E400BE016F5F7F4F85E00E94E5
S1130520640089810E94E400BE016F5F7F4F86E012
S11305300E94640089810E94E400F8011282BE01D5
S11305406F5F7F4F80E00E94640089810E94E40015
S113055081E00F90DF91CF911F910F9108954F92F9
S11305605F926F927F929F92AF92BF92CF92DF92EF
S1130570EF92FF920F931F93CF93DF93CDB7DEB724
S11305802A970FB6F894DEBF0FBECDBF2B013C01F6
S1130590A42EB22E8FE2841738F093E5921730F030
S11305A0023030F080E005C080E003C080E001C08C
S11305B081E0882309F4D9C0FE0131968AE0DF0185
S11305C01D928A95E9F720E030E0A901C301B20148
S11305D00E94870788233CF477FA709477F8709424
S11305E09924939401C0912CC301B2010E948C07F9
S11305F06B017C010E94BB079B01AC01C301B201EA
S11306000E941A072B013C0110E0C701B6012AE041
S113061030E040E050E00E94DA08E1E0F0E0EC0F66
S1130620FD1FE10FF11D605D6083C22ED32EE42E09
S1130630F52E1F5FC114D104E104F10431F720E069
S113064030E0A901C301B2010E948707811140C0B3
S1130650F12C4CC020E030E040E251E4C301B2018F
S11306600E946D082B013C010E948C07E1E0F0E040
S1130670EC0FFD1FEF0DF11D20E3260F20830E94D8
S1130680BB079B01AC01C301B2010E941A072B01F5
S11306903C01F394E394B2E0EB121CC020E030E0A0
S11306A040E251E40E946D080E948C076530710598
S11306B08105910578F0EF2DF0E0319781E090E02D
S11306C08C0F9D1FE80FF91F80818F5F808302C00C
S11306D0F12EE12C20E030E0A901C301B2010E9417
S11306E08707882319F092E0E912B4CF992041F0EA
S11306F0202F4B2D6A2D8DE20E94E601A6E0BA0E52
S1130700E12E12C0EE2DF0E0319781E090E08C0FE5
S11307109D1FE80FF91F202F4B2D6A2D80810E9409
S1130720E60196E0B90EEA94E110ECCF4FEF4B0DE1
S1130730FF20C9F0202F6A2D8EE20E94E601A4E07A
S1130740BA0E0FC0E1E0F0E0EC0FFD1FE10FF11D68
S1130750202F4B2D6A2D80810E94E601B6E0BB0E4E
S11307601F5F1F1578F380E001C082E02A960FB660
S1130770F894DEBF0FBECDBFDF91CF911F910F91D3
S1130780FF90EF90DF90CF90BF90AF909F907F90BD
S11307906F905F904F900895843008F06FC0683078
S11307A008F06EC0423008F06DC08130F9F030F0CE
S11307B08230A1F1833009F449C066C02AB381E0D4
S11307C090E0062E02C0880F991F0A94E2F78095E4
S11307D082238ABB2AB3842F90E002C0880F991F1A
S11307E06A95E2F7822B8ABB80E0089587B321E003
S11307F030E0062E02C0220F331F0A94E2F7209540
S1130800282327BB27B3842F90E002C0880F991FA9
S11308106A95E2F7822B87BB80E0089584B321E0D8
S113082030E0062E02C0220F331F0A94E2F720950F
S1130830282324BB24B3842F90E002C0880F991F7F
S11308406A95E2F7822B84BB80E0089581B321E0AE
S113085030E0062E02C0220F331F0A94E2F72095DF
S1130860282321BB21B3842F90E002C0880F991F55
S11308706A95E2F7822B81BB80E0089582E00895B7
S113088082E0089582E0089580E00895843008F0BD
S11308906FC0683008F06EC0423008F06DC081301F
S11308A0F9F030F08230A1F1833009F449C066C018
S11308B02BB381E090E0062E02C0880F991F0A94A2
S11308C0E2F7809582238BBB2BB3842F90E002C088
S11308D0880F991F6A95E2F7822B8BBB80E00895FD
S11308E088B321E030E0062E02C0220F331F0A94A1
S11308F0E2F72095282328BB28B3842F90E002C078
S1130900880F991F6A95E2F7822B88BB80E00895CF
S113091085B321E030E0062E02C0220F331F0A9473
S1130920E2F72095282325BB25B3842F90E002C04D
S1130930880F991F6A95E2F7822B85BB80E00895A2
S113094082B321E030E0062E02C0220F331F0A9446
S1130950E2F72095282322BB22B3842F90E002C023
S1130960880F991F6A95E2F7822B82BB80E0089575
S113097082E0089582E0089582E0089580E0089579
S1130980843008F07BC0683008F07AC0423008F048
S113099079C0813011F130F08230D1F1833009F423
S11309A052C072C0413061F42BB381E090E002C0C8
S11309B0880F991F6A95E2F7822B8BBB80E008951C
S11309C02BB381E090E002C0880F991F6A95E2F78B
S11309D0809582238BBB80E00895413061F428B375
S11309E081E090E002C0880F991F6A95E2F7822B9C
S11309F088BB80E0089528B381E090E002C0880FAE
S1130A00991F6A95E2F78095822388BB80E0089558
S1130A10413061F425B381E090E002C0880F991F52
S1130A206A95E2F7822B85BB80E0089525B381E0C7
S1130A3090E002C0880F991F6A95E2F7809582239F
S1130A4085BB80E00895413061F422B381E090E0F9
S1130A5002C0880F991F6A95E2F7822B82BB80E05F
S1130A60089522B381E090E002C0880F991F6A952F
S1130A70E2F78095822382BB80E0089582E00895A6
S1130A8082E0089582E0089580E008951F920F9215
S1130A900FB60F9211242F933F934F935F936F934D
S1130AA07F938F939F93AF93BF93EF93FF93E091C3
S1130AB06807F0916907309729F080916207909157
S1130AC063070995FF91EF91BF91AF919F918F912A
S1130AD07F916F915F914F913F912F910F900FBE36
S1130AE00F901F9018951F920F920FB60F9211241A
S1130AF02F933F934F935F936F937F938F939F9322
S1130B00AF93BF93EF93FF93E0916A07F0916B0764
S1130B10309729F080916407909165070995FF91BA
S1130B20EF91BF91AF919F918F917F916F915F9161
S1130B304F913F912F910F900FBE0F901F901895DA
S1130B401F920F920FB60F9211242F933F934F933E
S1130B505F936F937F938F939F93AF93BF93EF9321
S1130B60FF93E0916C07F0916D07309719F082E0E4
S1130B7090E00995FF91EF91BF91AF919F918F9173
S1130B807F916F915F914F913F912F910F900FBE85
S1130B900F901F9018958DB180618DB98DB18C7FA8
S1130BA08DB98DB183608DB98EB18E7F8EB98DB1C3
S1130BB08F778DB98DB1877F8DB98DB18B7F8DB9CD
S1130BC08DB18F7D8DB98DB180648DB981E008952B
S1130BD090916E07913071F091110EC08FB981E040
S1130BE080936E0701C08FB1779BFDCF10926E0783
S1130BF080E0089584E0089581E00895009731F03D
S1130C0020916E07FC01208380E0089583E008951D
S1130C101F920F920FB60F9211246C9910926E07C7
S1130C200F900FBE0F901F9018951F920F920FB642
S1130C300F9211242F933F934F935F936F937F935E
S1130C408F939F93AF93BF93EF93FF93E0917707B5
S1130C50F0917807309729F080916F079091700791
S1130C600995FF91EF91BF91AF919F918F917F91E2
S1130C706F915F914F913F912F910F900FBE0F9005
S1130C801F9018951F920F920FB60F9211242F9355
S1130C903F934F935F936F937F938F939F93AF9300
S1130CA0BF93EF93FF93E0917907F0917A07309720
S1130CB029F080917107909172070995FF91EF9146
S1130CC0BF91AF919F918F917F916F915F914F9160
S1130CD03F912F910F900FBE0F901F9018951F9268
S1130CE00F920FB60F9211242F933F934F935F935C
S1130CF06F937F938F939F93AF93BF93EF93FF93E0
S1130D00E0917B07F0917C07309729F0809173077D
S1130D10909174070995FF91EF91BF91AF919F91C5
S1130D208F917F916F915F914F913F912F910F9090
S1130D300FBE0F901F9018951F920F920FB60F922F
S1130D4011242F933F934F935F936F937F938F93CC
S1130D509F93AF93BF93EF93FF93E0917D07F0913F
S1130D607E07309729F08091750790917607099551
S1130D70FF91EF91BF91AF919F918F917F916F916F
S1130D805F914F913F912F910F900FBE0F901F9045
S1130D901895E0918F07F0919007309729F0809192
S1130DA07F079091800709950895E0918F07F0914E
S1130DB09007309729F080917F07909180070995DB
S1130DC00895E0919B07F0919C07309729F080915A
S1130DD08B0790918C07099508951F920F920FB677
S1130DE00F9211242F933F934F935F936F937F93AD
S1130DF08F939F93AF93BF93EF93FF93E0919D07DE
S1130E00F0919E07309729F080918D0790918E077D
S1130E100995FF91EF91BF91AF919F918F917F9130
S1130E206F915F914F913F912F910F900FBE0F9053
S1130E301F9018955058BB27AA270E9432070C947C
S1130E4033080E94250838F00E942C0820F039F459
S1130E509F3F19F426F40C9422080EF4E095E7FB66
S1130E600C941C08E92F0E94440858F3BA1762072F
S1130E7073078407950720F079F4A6F50C946608A7
S1130E800EF4E0950B2EBA2FA02D0B01B9019001A1
S1130E900C01CA01A0011124FF27591B99F0593FE5
S1130EA050F4503E68F11A16F040A22F232F342F2D
S1130EB04427585FF3CF469537952795A795F0407B
S1130EC05395C9F77EF41F16BA0B620B730B840B90
S1130ED0BAF09150A1F0FF0FBB1F661F771F881F48
S1130EE0C2F70EC0BA0F621F731F841F48F48795A0
S1130EF077956795B795F7959E3F08F0B0CF939592
S1130F00880F08F09927EE0F9795879508950E940A
S1130F10F80708F481E008950E944C0888F09F5770
S1130F2098F0B92F9927B751B0F0E1F0660F771F09
S1130F30881F991F1AF0BA95C9F714C0B13091F0FF
S1130F400E946608B1E008950C946608672F782F14
S1130F508827B85F39F0B93FCCF3869577956795C4
S1130F60B395D9F73EF490958095709561957F4F30
S1130F708F4F9F4F0895E89409C097FB3EF49095D6
S1130F808095709561957F4F8F4F9F4F9923A9F05E
S1130F90F92F96E9BB279395F695879577956795ED
S1130FA0B795F111F8CFFAF4BB0F11F460FF1BC031
S1130FB06F5F7F4F8F4F9F4F16C0882311F096E9C4
S1130FC011C0772321F09EE8872F762F05C0662372
S1130FD071F096E8862F70E060E02AF09A95660F2B
S1130FE0771F881FDAF7880F9695879597F90895E4
S1130FF0990F0008550FAA0BE0E8FEEF1616170626
S1131000E807F907C0F012161306E407F50798F08D
S1131010621B730B840B950B39F40A2661F0232BA6
S1131020242B252B21F408950A2609F4A140A69522
S11310308FEF811D811D089597F99F6780E870E007
S113104060E008959FEF80EC089500240A9416163A
S1131050170618060906089500240A9412161306A2
S1131060140605060895092E0394000C11F4882330
S113107052F0BB0F40F4BF2B11F460FF04C06F5F4C
S11310807F4F8F4F9F4F089557FD9058440F551F22
S113109059F05F3F71F04795880F97FB991F61F0F6
S11310A09F3F79F087950895121613061406551F6D
S11310B0F2CF4695F1DF08C0161617061806991FD9
S11310C0F1CF86957105610508940895E894BB27CE
S11310D066277727CB0197F908950E9480080C941E
S11310E033080E94250838F00E942C0820F095232C
S11310F011F00C941C080C94220811240C94670819
S11311000E94440870F3959FC1F3950F50E0551F5A
S1131110629FF001729FBB27F00DB11D639FAA2748
S1131120F00DB11DAA1F649F6627B00DA11D661F97
S1131130829F2227B00DA11D621F739FB00DA11DB8
S1131140621F839FA00D611D221F749F3327A00D72
S1131150611D231F849F600D211D822F762F6A2F0E
S113116011249F5750409AF0F1F088234AF0EE0F73
S1131170FF1FBB1F661F771F881F91505040A9F7A0
S11311809E3F510580F00C941C080C9467085F3F47
S1131190E4F3983ED4F3869577956795B795F795DC
S11311A0E7959F5FC1F7FE2B880F911D9695879554
S11311B097F90895A1E21A2EAA1BBB1BFD010DC0CD
S11311C0AA1FBB1FEE1FFF1FA217B307E407F507F3
S11311D020F0A21BB30BE40BF50B661F771F881FCF
S11311E0991F1A9469F760957095809590959B0165
S11311F0AC01BD01CF010895EE0FFF1F0590F491DE
S10B1200E02D0994F894FFCFDE
S113120800000002000000043800000000003E5BFB
S11312184F5B3E3E6B4F6B3E1C3E7C3E1C183C7E37
S11312283C181C577D571C1C5E7F5E1C00183C181C
S113123800FFE7C3E7FF0018241800FFE7DBE7FF18
S113124830483A060E2629792926407F05050740A5
S11312587F05253F5A3CE73C5A7F3E1C1C08081C66
S11312681C3E7F14227F22145F5F005F5F06097FA4
S1131278017F006689956A606060606094A2FFA23D
S11312889408047E040810207E201008082A1C08EC
S1131298081C2A08081E101010100C1E0C1E0C30F6
S11312A8383E3830060E3E0E0600000000000000EE
S11312B85F00000007000700147F147F14242A7FAE
S11312C82A1223130864623649562050000807037B
S11312D800001C2241000041221C002A1C7F1C2AF9
S11312E808083E080800807030000808080808004C
S11312F80060600020100804023E5149453E004247
S11313087F400072494949462141494D3318141216
S11313187F1027454545393C4A494931412111093E
S1131328073649494936464949291E000014000030
S1131338004034000000081422411414141414004A
S11313484122140802015909063E415D594E7C1296
S113135811127C7F494949363E414141227F41412E
S1131368413E7F494949417F090909013E414151AB
S1131378737F0808087F00417F41002040413F01F6
S11313887F081422417F404040407F021C027F7F37
S11313980408107F3E4141413E7F090909063E4148
S11313A851215E7F09192946264949493203017F9B
S11313B801033F4040403F1F2040201F3F4038402A
S11313C83F631408146303047804036159494D43C3
S11313D8007F4141410204081020004141417F043B
S11313E80201020440404040400003070800205422
S11313F85478407F28444438384444442838444482
S1131408287F385454541800087E090218A4A49C50
S1131418787F0804047800447D40002040403D0063
S11314287F1028440000417F40007C047804787CC5
S1131438080404783844444438FC1824241818242C
S11314482418FC7C08040408485454542404043F15
S113145844243C4040207C1C2040201C3C4030401C
S11314683C44281028444C9090907C4464544C4448
S113147800083641000000770000004136080002E9
S1131488010204023C2623263C1EA1A161123A4013
S113149840207A3854545559215555794122545489
S11314A87842215554784020545579400C1E527284
S11314B81239555555593954545459395554545861
S11314C80000457C410002457D420001457C407D89
S11314D81211127DF0282528F07C5455450020541B
S11314E8547C547C0A097F4932494949323A444474
S11314F8443A324A4848303A4141217A3A424020F3
S113150878009DA0A07D3D4242423D3D4040403D83
S11315183C24FF2424487E4943662B2FFC2F2BFFB1
S11315280929F620C0887E09032054547941000013
S1131538447D413048484A32384040227A007A0A89
S11315480A727D0D19317D2629292F282629292952
S11315582630484D40203808080808080808083884
S11315682F10C8ACBA2F102834FA00007B000008EA
S1131578142A142222142A14085500550055AA5571
S1131588AA55AAFF55FF55FF000000FF00101010D0
S1131598FF00141414FF001010FF00FF1010F010C7
S11315A8F0141414FC001414F700FF0000FF00FFEB
S11315B81414F404FC141417101F10101F101F1413
S11315C814141F00101010F0000000001F10101059
S11315D8101F10101010F010000000FF1010101051
S11315E81010101010FF10000000FF140000FF007E
S11315F8FF00001F10170000FC04F4141417101740
S11316081414F404F40000FF00F71414141414144C
S113161814F700F7141414171410101F101F1414BF
S113162814F4141010F010F000001F101F00000034
S11316381F14000000FC140000F010F01010FF103C
S1131648FF141414FF141010101F00000000F010F1
S1131658FFFFFFFFFFF0F0F0F0F0FFFFFF000000D6
S11316680000FFFF0F0F0F0F0F3844443844FC4AA3
S11316784A4A347E02020606027E027E0263554905
S113168841633844443C04407E201E2006027E0206
S11316980299A5E7A5991C2A492A1C4C7201724C87
S11316A8304A4D4D303048784830BC625A463D3E49
S11316B8494949007E0101017E2A2A2A2A2A4444EA
S11316C85F444440514A444040444A51400000FF6A
S11316D80103E080FF000008086B6B08361236240B
S11316E836060F090F060000181800000010100035
S11316F83040FF0101001F01011E00191D171200CF
S10D17083C3C3C3C000000000000E3
S9030000FC
