:100000000C9431000C94D9030C9406040C94330422
:100010000C945C050C9468050C94A8040C94D5040D
:100020000C9402050C942F050C9474050C94800517
:100030000C949B040C944E000C944E000C944E00B7
:100040000C944E000C944E000C944E000C944E00F8
:100050000C944E006A007F00A900B000B700BE00FB
:10006000C50011241FBECFE5D8E0DEBFCDBF10E034
:10007000A0E6B0E0EAE6FBE002C005900D92AA36E9
:10008000B107D9F722E0AAE6B0E001C01D92AF396E
:10009000B207E1F70E9450000C94B3050C940000E5
:1000A0000E94CF0141E065E088E10E94590220E012
:1000B00040E065E088E10E945C02FFCFFB01108216
:1000C00090E08730910508F067C0FC01E65DFF4FC6
:1000D0000C94AD05E0E6F0E020819181428130E0B2
:1000E000220F331F220F331F892F90E0880F991F93
:1000F0002062822B842BFB01808380E00895809115
:100100006300882351F0813061F0823071F08330D8
:1001100081F441E091E080E00FC040E090E080E0B9
:100120000BC041E090E080E007C040E091E080E05B
:1001300003C040E090E082E081112FC0292F30E021
:10014000220F331F220F331F242B2860FB01208333
:100150000895809164008064FB01808380E00895AD
:10016000809165008068FB01808380E00895809124
:1001700066008460FB01808380E0089580916700C1
:100180008061FB01808380E0089580916800806831
:10019000FB01808380E0089582E00895009751F08C
:1001A000FC012081203340F4269526952695208356
:1001B00080E0089583E0089582E008951F93CF932F
:1001C000DF931F92CDB7DEB7182FCE0101960E94A4
:1001D00091048981811115C040E064E081E00E94B2
:1001E000530300C000C0812F0E947B0400C000C0E8
:1001F00041E064E081E00E94530300C000C080E061
:1002000001C084E00F90DF91CF911F910895CF93AB
:10021000DF931F92CDB7DEB7BE016F5F7F4F0E94A5
:100220005E0040E063E081E00E94530389810E9408
:10023000DE000F90DF91CF910895CF93C82F41E05A
:1002400063E081E00E9453038C2F0E94DE00CF9177
:100250000895FF920F931F93CF93DF931F92CDB713
:10026000DEB789836435C8F58033C8F54230C8F5F8
:10027000F42E162F082F0770CE0101960E94CE0093
:10028000498184E5489FF0011124E659FF4FE10FB1
:10029000F11D808121E030E0002E02C0220F331FCB
:1002A0000A94E2F7209528238F2D90E002C0880F52
:1002B000991F0A95E2F7022F082B0083E0E6F0E091
:1002C0004483158382E00E94070183E00E940701B6
:1002D000802F0E941D0180E005C082E003C082E003
:1002E00001C082E00F90DF91CF911F910F91FF909D
:1002F0000895FF920F931F93CF93DF931F92CDB773
:10030000DEB7803320F4643520F090E003C090E045
:1003100001C091E0403320F4243520F030E003C0E8
:1003200030E001C031E0841304C0621721F051E0D5
:1003300003C051E001C050E0992329F1332329F192
:10034000552329F1F22E042F182F6983CE0101962F
:100350000E94CE00E98184E5E89FF0011124E6596E
:10036000FF4FE10FF11D4081812F877050E002C0E7
:10037000559547958A95E2F741706F2D802F0E9421
:10038000290180E005C082E003C082E001C082E074
:100390000F90DF91CF911F910F91FF9008950F93D0
:1003A0001F93CF93DF931F92CDB7DEB741E065E097
:1003B00081E00E945F0241E067E081E00E945F020D
:1003C00041E064E081E00E94530341E064E081E0A9
:1003D0000E945F0241E062E081E00E94530341E03D
:1003E00062E081E00E945F0241E063E081E00E9400
:1003F0005F020E945E0440E064E081E00E945303DB
:1004000040E062E081E00E94D90200C000C041E00B
:1004100062E081E00E94D902BE016F5F7F4F80E001
:100420000E945E0089810E94DE00BE016F5F7F4FE7
:1004300081E00E945E0089810E94DE0000E610E0FB
:1004400081E0F8018283BE016F5F7F4F80E00E94F0
:100450005E0089810E94DE00BE016F5F7F4F84E0F5
:100460000E945E0089810E94DE00BE016F5F7F4FA7
:1004700085E00E945E0089810E94DE00BE016F5F00
:100480007F4F86E00E945E0089810E94DE00F801B5
:100490001282BE016F5F7F4F80E00E945E00898103
:1004A0000E94DE0081E00F90DF91CF911F910F91AC
:1004B00008950E94290108950E94790108958430C9
:1004C00008F06FC0683008F06EC0423008F06DC0B0
:1004D0008130F9F030F08230A1F1833009F449C065
:1004E00066C02AB381E090E0062E02C0880F991FF3
:1004F0000A94E2F7809582238ABB2AB3842F90E086
:1005000002C0880F991F6A95E2F7822B8ABB80E0B0
:10051000089587B321E030E0062E02C0220F331F7A
:100520000A94E2F72095282327BB27B3842F90E075
:1005300002C0880F991F6A95E2F7822B87BB80E083
:10054000089584B321E030E0062E02C0220F331F4D
:100550000A94E2F72095282324BB24B3842F90E04B
:1005600002C0880F991F6A95E2F7822B84BB80E056
:10057000089581B321E030E0062E02C0220F331F20
:100580000A94E2F72095282321BB21B3842F90E021
:1005900002C0880F991F6A95E2F7822B81BB80E029
:1005A000089582E0089582E0089582E0089580E051
:1005B0000895843008F06FC0683008F06EC0423093
:1005C00008F06DC08130F9F030F08230A1F1833055
:1005D00009F449C066C02BB381E090E0062E02C04A
:1005E000880F991F0A94E2F7809582238BBB2BB367
:1005F000842F90E002C0880F991F6A95E2F7822B42
:100600008BBB80E0089588B321E030E0062E02C065
:10061000220F331F0A94E2F72095282328BB28B322
:10062000842F90E002C0880F991F6A95E2F7822B11
:1006300088BB80E0089585B321E030E0062E02C03B
:10064000220F331F0A94E2F72095282325BB25B3F8
:10065000842F90E002C0880F991F6A95E2F7822BE1
:1006600085BB80E0089582B321E030E0062E02C011
:10067000220F331F0A94E2F72095282322BB22B3CE
:10068000842F90E002C0880F991F6A95E2F7822BB1
:1006900082BB80E0089582E0089582E0089582E0C0
:1006A000089580E00895843008F07BC0683008F039
:1006B0007AC0423008F079C0813011F130F08230D8
:1006C000D1F1833009F452C072C0413061F42BB3D0
:1006D00081E090E002C0880F991F6A95E2F7822BB3
:1006E0008BBB80E008952BB381E090E002C0880FBF
:1006F000991F6A95E2F7809582238BBB80E008956D
:10070000413061F428B381E090E002C0880F991F66
:100710006A95E2F7822B88BB80E0089528B381E0D8
:1007200090E002C0880F991F6A95E2F780958223B6
:1007300088BB80E00895413061F425B381E090E00A
:1007400002C0880F991F6A95E2F7822B85BB80E073
:10075000089525B381E090E002C0880F991F6A9543
:10076000E2F78095822385BB80E00895413061F4F3
:1007700022B381E090E002C0880F991F6A95E2F7EA
:10078000822B82BB80E0089522B381E090E002C01A
:10079000880F991F6A95E2F78095822382BB80E0DB
:1007A000089582E0089582E0089582E0089580E04F
:1007B00008951F920F920FB60F9211242F933F931B
:1007C0004F935F936F937F938F939F93AF93BF9359
:1007D000EF93FF93E0916802F0916902309729F05E
:1007E00080916202909163020995FF91EF91BF9110
:1007F000AF919F918F917F916F915F914F913F91B9
:100800002F910F900FBE0F901F9018951F920F926F
:100810000FB60F9211242F933F934F935F936F93D3
:100820007F938F939F93AF93BF93EF93FF93E09149
:100830006A02F0916B02309729F0809164029091E6
:1008400065020995FF91EF91BF91AF919F918F91B3
:100850007F916F915F914F913F912F910F900FBEBC
:100860000F901F9018951F920F920FB60F921124A0
:100870002F933F934F935F936F937F938F939F93A8
:10088000AF93BF93EF93FF93E0916C02F0916D02F1
:10089000309719F082E090E00995FF91EF91BF91B8
:1008A000AF919F918F917F916F915F914F913F9108
:1008B0002F910F900FBE0F901F9018958DB18061F2
:1008C0008DB98DB18C7F8DB98DB183608DB98EB1AD
:1008D0008E7F8EB98DB18F778DB98DB1877F8DB9B0
:1008E0008DB18B7F8DB98DB18F7D8DB98DB18064C8
:1008F0008DB981E0089590916E02913071F091115F
:100900000EC08FB981E080936E0201C08FB1779BDA
:10091000FDCF10926E0280E0089584E0089581E09A
:100920000895009731F020916E02FC01208380E051
:10093000089583E008951F920F920FB60F9211242D
:100940006C9910926E020F900FBE0F901F90189529
:100950001F920F920FB60F9211242F933F934F9334
:100960005F936F937F938F939F93AF93BF93EF9317
:10097000FF93E0917702F0917802309729F080910F
:100980006F02909170020995FF91EF91BF91AF9125
:100990009F918F917F916F915F914F913F912F9197
:1009A0000F900FBE0F901F9018951F920F920FB6C9
:1009B0000F9211242F933F934F935F936F937F93E5
:1009C0008F939F93AF93BF93EF93FF93E09179023F
:1009D000F0917A02309729F0809171029091720221
:1009E0000995FF91EF91BF91AF919F918F917F9169
:1009F0006F915F914F913F912F910F900FBE0F908C
:100A00001F9018951F920F920FB60F9211242F93DB
:100A10003F934F935F936F937F938F939F93AF9386
:100A2000BF93EF93FF93E0917B02F0917C023097AC
:100A300029F080917302909174020995FF91EF91D2
:100A4000BF91AF919F918F917F916F915F914F91E6
:100A50003F912F910F900FBE0F901F9018951F92EE
:100A60000F920FB60F9211242F933F934F935F93E2
:100A70006F937F938F939F93AF93BF93EF93FF9366
:100A8000E0917D02F0917E02309729F0809175020D
:100A9000909176020995FF91EF91BF91AF919F914F
:100AA0008F917F916F915F914F913F912F910F9017
:100AB0000FBE0F901F901895E0918F02F091900259
:100AC000309729F080917F029091800209950895D6
:100AD000E0918F02F0919002309729F080917F028F
:100AE0009091800209950895E0919B02F0919C02FB
:100AF000309729F080918B0290918C02099508958E
:100B00001F920F920FB60F9211242F933F934F9382
:100B10005F936F937F938F939F93AF93BF93EF9365
:100B2000FF93E0919D02F0919E02309729F0809111
:100B30008D0290918E020995FF91EF91BF91AF9137
:100B40009F918F917F916F915F914F913F912F91E5
:100B50000F900FBE0F901F901895EE0FFF1F05907E
:0A0B6000F491E02D0994F894FFCF02
:0A0B6A000000000200000004380043
:00000001FF
