:100000000C9431000C941A080C9447080C94740852
:100010000C947F0A0C948B0A0C94CB090C94F8096D
:100020000C94250A0C94520A0C94970A0C94A30A77
:100030000C94D9080C944E000C944E000C944E0075
:100040000C944E000C944E000C944E000C944E00F8
:100050000C944E0069027E02A802AF02B602BD02F5
:10006000C40211241FBECFE5D8E0DEBFCDBF15E02E
:10007000A0E6B0E0ECE8FAE102C005900D92A638E7
:10008000B107D9F727E0A6E8B5E001C01D92AA3E66
:10009000B207E1F70E9450000C94440D0C9400004C
:1000A0000E9481000E94A40008950F9321E040E087
:1000B00060E089E690E00E94800621E040E069E08F
:1000C00088E790E00E94800601E021E044E560E0DE
:1000D0008BE20E947B0621E04AE164E086E10E9417
:1000E000760600E021E042E066E18EE50E944C05E4
:1000F00021E04FE468E28EE30E944C0581E00F911D
:1001000008950F93CF93DF930E94C2040E94700161
:100110000E945500C2E9D5E0688179818A819B817E
:1001200001E02EE140E00E9452056C817D818E81CC
:100130009F812EE149E00E9452050E94E60881E07D
:10014000DF91CF910F910895C2E9D5E0888199811F
:10015000AA81BB8106E815E0F80180839183A28320
:10016000B3838C819D81AE81BF8184839583A68377
:10017000B78388859985AA85BB8580879187A28763
:10018000B3870E948A01CE010E94A601F801608116
:10019000718182819381C880D980EA80FB80A70128
:1001A00096010E943D0B81112AC060918A057091D1
:1001B0008B0580918C0590918D052091960530914D
:1001C000970540919805509199050E943D0B81112A
:1001D00018C060918E0570918F0580919005909167
:1001E000910520919A0530919B0540919C05509175
:1001F0009D050E943D0B882331F081E005C081E020
:1002000003C081E001C080E0882309F49DCF01E0B4
:100210002EE140E0C701B6010E94520560919605AB
:100220007091970580919805909199052EE149E08C
:100230000E94520589CFE0EAF5E080819181A28198
:10024000B3810196A11DB11D80839183A283B383E5
:1002500008958091B405823061F18330A9F0813036
:10026000F1F580E090E00E9417091092A00510922D
:10027000A1051092A2051092A30580E00E949D099D
:1002800083E08093B40508958CEA95E00E9402090A
:10029000E0EAF5E080819181A281B3818483958336
:1002A000A683B78381E00E949D0982E08093B40514
:1002B000089580EB95E00E940209E0EAF5E0808174
:1002C0009181A281B38180879187A287B38780E0E3
:1002D0000E942D0983E00E942D091092B405089513
:1002E0000E94E80880E00E942D0940E050E069E2A9
:1002F00071E080E00E941B0940E050E06BE171E09A
:1003000083E00E941B0983E00E942D091092B4052E
:1003100081E008958091B405811116C081E0809339
:10032000B4058EE995E00E94690981E00E949D096B
:1003300080E00E94AD0983E00E94AD0980E00E9448
:100340004B0983E00E944B0981E008958F929F92B0
:10035000AF92BF92CF92DF92EF92FF92CF93DF9353
:10036000EC0160919E0570919F0580E090E00E94F5
:10037000E30B9B01AC0160E074E284E79BE40E9424
:10038000420B6B017C018091B40581118AC0E0EAC7
:10039000F5E080859185A285B385DC0199278827C2
:1003A0004091B0055091B1056091B2057091B305CF
:1003B0009A01AB01280F391F4A1F5B1F2093B0051C
:1003C0003093B1054093B2055093B3058481958174
:1003D000A681B781DC01992788278090AC05909091
:1003E000AD05A090AE05B090AF05880D991DAA1D72
:1003F000BB1D8093AC059093AD05A093AE05B09363
:10040000AF05211531054105510589F0A8EEB3E08E
:100410000E942A0D0E94E30B9B01AC01C701B601AB
:100420000E94420B688379838A839B8304C018826D
:1004300019821A821B82C090B005D090B105E0905D
:10044000B205F090B305C114D104E104F10409F13F
:100450006091AC057091AD058091AE059091AF05AE
:100460000E94E30B20E030E048EC52E40E94950C3F
:100470004B015C01C701B6010E94E30B9B01AC017B
:10048000C501B4010E94420B6C837D838E839F83E0
:1004900008C080E090E0A8ECB2E48C839D83AE833A
:1004A000BF8381E0DF91CF91FF90EF90DF90CF90FD
:1004B000BF90AF909F908F900895FB01108290E0C5
:1004C0008730910508F067C0FC01E65DFF4F0C9492
:1004D000240DE0E6F0E020819181428130E0220F9E
:1004E000331F220F331F892F90E0880F991F20623E
:1004F000822B842BFB01808380E008958091630030
:10050000882351F0813061F0823071F0833081F4C2
:1005100041E091E080E00FC040E090E080E00BC05F
:1005200041E090E080E007C040E091E080E003C05F
:1005300040E090E082E081112FC0292F30E0220FAF
:10054000331F220F331F242B2860FB0120830895C3
:10055000809164008064FB01808380E00895809135
:1005600065008068FB01808380E0089580916600CB
:100570008460FB01808380E0089580916700806142
:10058000FB01808380E00895809168008068FB0112
:10059000808380E0089582E00895009751F0FC0187
:1005A0002081203340F4269526952695208380E0EF
:1005B000089583E0089582E008951F93CF93DF9319
:1005C0001F92CDB7DEB7182FCE0101960E94CF083B
:1005D0008981811115C040E064E081E00E949407A8
:1005E00000C000C0812F0E94B90800C000C041E0D7
:1005F00064E081E00E94940700C000C080E001C078
:1006000084E00F90DF91CF911F910895CF93DF93F6
:100610001F92CDB7DEB7BE016F5F7F4F0E945D02B4
:1006200040E063E081E00E94940789810E94DD023E
:100630000F90DF91CF910895CF93C82F41E063E0F1
:1006400081E00E9494078C2F0E94DD02CF910895D3
:10065000FF920F931F93CF93DF931F92CDB7DEB717
:1006600089836435C8F58033C8F54230C8F5F42E67
:10067000162F082F0770CE0101960E94CD024981E6
:1006800084E5489FF0011124EB54FA4FE10FF11D6E
:10069000808121E030E0002E02C0220F331F0A9437
:1006A000E2F7209528238F2D90E002C0880F991F34
:1006B0000A95E2F7022F082B0083E0E6F0E044837E
:1006C000158382E00E94060383E00E940603802FC8
:1006D0000E941C0380E005C082E003C082E001C0EC
:1006E00082E00F90DF91CF911F910F91FF900895BD
:1006F000AF92BF92CF92DF92EF92FF920F931F9330
:10070000CF93DF931F92CDB7DEB7A82E162F198295
:10071000643528F48FE28A1520F480E003C080E07D
:1007200001C081E0453520F4213320F090E003C082
:1007300090E001C091E030E06901CA0CD11C50E0AA
:100740007A01E10EF11C882349F1023048F5992322
:1007500049F1CE0101960E94CD02E0E6F0E08981E8
:100760008483158382E00E94060383E00E940603CF
:100770000EC0402F612F8B2D0E942803B39401C01F
:10078000BA2C8B2D90E08C159D059CF31F5F812F5B
:1007900090E08E159F05A4F380E005C082E003C0C1
:1007A00082E001C082E00F90DF91CF911F910F9105
:1007B000FF90EF90DF90CF90BF90AF900895CF92D1
:1007C000DF92EF92FF920F931F93CF93DF93C82E88
:1007D000F62EE42ED22E013039F400E028E045E078
:1007E0006E2D8F2D0E94780310E01EC08C2D90E09E
:1007F000FC01EE0FFF1FEE0FFF1FE80FF91FE10FC7
:10080000F11DEA57FF4FD081C0E00BC0D0FF07C0F9
:100810004D2D612F6E0D8C2F8F0D0E942803CF5F01
:10082000D695C83098F31F5F153000F382E0DF9152
:10083000CF911F910F91FF90EF90DF90CF9008958F
:10084000AF92BF92CF92DF92EF92FF920F931F93DE
:10085000CF93DF93803340F4643540F4023040F4AA
:10086000413340F090E007C090E005C090E003C045
:1008700090E001C091E091111CC082E029C0EC2CF5
:10088000F12CED0CF11CDD2DDC0DCD2D0EC080E327
:10089000E816F10424F0C03310F0D053C0E0402F2C
:1008A000612F8C2F0E942803CF5FDC1780F71F5F1A
:1008B00005C0A22EC42EB62ED82E162FA12FB0E022
:1008C000EA2DF0E0EB0DF11DAE17BF07C4F280E09A
:1008D000DF91CF911F910F91FF90EF90DF90CF901C
:1008E000BF90AF900895AF92BF92CF92DF92EF92F8
:1008F000FF920F931F93CF93DF93803330F46435CF
:1009000030F4023030F090E005C090E003C090E099
:1009100001C091E091111CC082E029C0EC2CF12CA7
:10092000ED0CF11CDD2DDC0DCD2D0EC084E5E8169F
:10093000F10424F0C43510F0D455C0E0402F6C2FE2
:10094000812F0E942803CF5FDC1780F71F5F05C04F
:10095000A22EC42ED62EB82E182FA12FB0E0EA2D2D
:10096000F0E0EB0DF11DAE17BF07C4F280E0DF91A0
:10097000CF911F910F91FF90EF90DF90CF90BF909C
:10098000AF9008950F931F93CF93DF931F92CDB72E
:10099000DEB741E065E081E00E94A00641E067E04B
:1009A00081E00E94A00641E064E081E00E9494079B
:1009B00041E064E081E00E94A00641E062E081E065
:1009C0000E94940741E062E081E00E94A00641E0BD
:1009D00063E081E00E94A0060E949F0840E064E07E
:1009E00081E00E94940740E062E081E00E941A07E3
:1009F00000C000C041E062E081E00E941A07BE0131
:100A00006F5F7F4F80E00E945D0289810E94DD025E
:100A1000BE016F5F7F4F81E00E945D0289810E946D
:100A2000DD0200E610E081E0F8018283BE016F5F25
:100A30007F4F80E00E945D0289810E94DD02BE013D
:100A40006F5F7F4F84E00E945D0289810E94DD021A
:100A5000BE016F5F7F4F85E00E945D0289810E9429
:100A6000DD02BE016F5F7F4F86E00E945D028981DB
:100A70000E94DD02F8011282BE016F5F7F4F80E0AD
:100A80000E945D0289810E94DD0281E00F90DF916A
:100A9000CF911F910F9108950F9321E00E94DF03E2
:100AA0000F9108954F925F926F927F928F929F92D3
:100AB000AF92BF92CF92DF92EF92FF920F931F936C
:100AC000CF93DF93CDB7DEB72A970FB6F894DEBF8A
:100AD0000FBECDBF2B013C01A42EB22E902E8FE273
:100AE000841740F093E5921738F0A1E0A01730F496
:100AF00080E005C080E003C080E001C081E0882381
:100B000009F4DCC0FE0131968AE0DF011D928A956E
:100B1000E9F720E030E0A901C301B2010E943D0BDA
:100B200088233CF477FA709477F87094882483943F
:100B300001C0812CC301B2010E94B40B6B017C0186
:100B40000E94E30B9B01AC01C301B2010E94D00AD9
:100B50002B013C0110E0C701B6012AE030E040E083
:100B600050E00E94020DE1E0F0E0EC0FFD1FE10F0C
:100B7000F11D605D6083C22ED32EE42EF52E1F5F23
:100B8000C114D104E104F10431F720E030E0A901FF
:100B9000C301B2010E943D0B81113FC0F12C4BC03B
:100BA00020E030E040E251E4C301B2010E94950C24
:100BB0002B013C010E94B40BE1E0F0E0EC0FFD1FC3
:100BC000EF0DF11D20E3260F20830E94E30B9B0114
:100BD000AC01C301B2010E94D00A2B013C01F39485
:100BE0000F5F0330E1F420E030E040E251E40E9486
:100BF000950C0E94B40B653071058105910578F064
:100C0000EF2DF0E0319781E090E08C0F9D1FE80F11
:100C1000F91F80818F5F808302C0F12E00E020E009
:100C200030E0A901C301B2010E943D0B882319F0F5
:100C3000033009F0B5CF882049F001E0292D4B2D74
:100C40006A2D8DE20E94DF0396E0B90EE12E13C0FB
:100C5000EE2DF0E03197A1E0B0E0AC0FBD1FEA0F40
:100C6000FB1F01E0292D4B2D6A2D80810E94DF039F
:100C7000B6E0BB0EEA94E110EBCF4FEF4B0DFF2037
:100C8000D9F001E0292D6A2D8EE20E94DF0384E075
:100C9000B80E10C0E1E0F0E0EC0FFD1FE10FF11D18
:100CA00001E0292D4B2D6A2D80810E94DF0396E003
:100CB000B90E1F5F1F1570F380E001C082E02A9615
:100CC0000FB6F894DEBF0FBECDBFDF91CF911F915D
:100CD0000F91FF90EF90DF90CF90BF90AF909F90DB
:100CE0008F907F906F905F904F9008950F930E9428
:100CF00020040F9108950F930E9473040F9108959B
:100D0000EF92FF920F931F93CF93DF93EC01E62EA8
:100D1000142FF22E892B51F482E00BC001E02F2D0D
:100D2000412F6E2D0E94DF031A5F21968881811169
:100D3000F5CFDF91CF911F910F91FF90EF90089524
:100D4000843008F06FC0683008F06EC0423008F0A0
:100D50006DC08130F9F030F08230A1F1833009F4B8
:100D600049C066C02AB381E090E0062E02C0880F19
:100D7000991F0A94E2F7809582238ABB2AB3842FB5
:100D800090E002C0880F991F6A95E2F7822B8ABB18
:100D900080E0089587B321E030E0062E02C0220FE4
:100DA000331F0A94E2F72095282327BB27B3842F0B
:100DB00090E002C0880F991F6A95E2F7822B87BBEB
:100DC00080E0089584B321E030E0062E02C0220FB7
:100DD000331F0A94E2F72095282324BB24B3842FE1
:100DE00090E002C0880F991F6A95E2F7822B84BBBE
:100DF00080E0089581B321E030E0062E02C0220F8A
:100E0000331F0A94E2F72095282321BB21B3842FB6
:100E100090E002C0880F991F6A95E2F7822B81BB90
:100E200080E0089582E0089582E0089582E00895C8
:100E300080E00895843008F06FC0683008F06EC01C
:100E4000423008F06DC08130F9F030F08230A1F10D
:100E5000833009F449C066C02BB381E090E0062ED0
:100E600002C0880F991F0A94E2F7809582238BBBFA
:100E70002BB3842F90E002C0880F991F6A95E2F788
:100E8000822B8BBB80E0089588B321E030E0062EF2
:100E900002C0220F331F0A94E2F72095282328BBB3
:100EA00028B3842F90E002C0880F991F6A95E2F75B
:100EB000822B88BB80E0089585B321E030E0062EC8
:100EC00002C0220F331F0A94E2F72095282325BB86
:100ED00025B3842F90E002C0880F991F6A95E2F72E
:100EE000822B85BB80E0089582B321E030E0062E9E
:100EF00002C0220F331F0A94E2F72095282322BB59
:100F000022B3842F90E002C0880F991F6A95E2F700
:100F1000822B82BB80E0089582E0089582E00895EC
:100F200082E0089580E00895843008F07BC0683046
:100F300008F07AC0423008F079C0813011F130F009
:100F40008230D1F1833009F452C072C0413061F473
:100F50002BB381E090E002C0880F991F6A95E2F7F9
:100F6000822B8BBB80E008952BB381E090E002C020
:100F7000880F991F6A95E2F7809582238BBB80E0EA
:100F80000895413061F428B381E090E002C0880FF9
:100F9000991F6A95E2F7822B88BB80E0089528B3F9
:100FA00081E090E002C0880F991F6A95E2F7809572
:100FB000822388BB80E00895413061F425B381E04D
:100FC00090E002C0880F991F6A95E2F7822B85BBDB
:100FD00080E0089525B381E090E002C0880F991F5A
:100FE0006A95E2F78095822385BB80E008954130C1
:100FF00061F422B381E090E002C0880F991F6A95E6
:10100000E2F7822B82BB80E0089522B381E090E07A
:1010100002C0880F991F6A95E2F78095822382BBF0
:1010200080E0089582E0089582E0089582E00895C6
:1010300080E008951F920F920FB60F9211242F9304
:101040003F934F935F936F937F938F939F93AF9350
:10105000BF93EF93FF93E091B307F091B4073097FC
:1010600029F08091AD079091AE070995FF91EF911E
:10107000BF91AF919F918F917F916F915F914F91B0
:101080003F912F910F900FBE0F901F9018951F92B8
:101090000F920FB60F9211242F933F934F935F93AC
:1010A0006F937F938F939F93AF93BF93EF93FF9330
:1010B000E091B507F091B607309729F08091AF071E
:1010C0009091B0070995FF91EF91BF91AF919F91DA
:1010D0008F917F916F915F914F913F912F910F90E1
:1010E0000FBE0F901F9018951F920F920FB60F9280
:1010F00011242F933F934F935F936F937F938F931D
:101100009F93AF93BF93EF93FF93E091B707F09155
:10111000B807309719F082E090E00995FF91EF91C0
:10112000BF91AF919F918F917F916F915F914F91FF
:101130003F912F910F900FBE0F901F9018958DB17A
:1011400080618DB98DB18C7F8DB98EB18E7F8EB956
:101150008DB18F778DB98DB1877F8DB98DB18B7F33
:101160008DB98DB18F7D8DB98DB180648DB981E0E0
:1011700008959091B907913071F091110EC08FB917
:1011800081E08093B90701C08FB1779BFDCF1092AA
:10119000B90780E0089584E0089581E008950097FC
:1011A00031F02091B907FC01208380E0089583E0AD
:1011B00008951F920F920FB60F9211246C991092FE
:1011C000B9070F900FBE0F901F901895789408954F
:1011D0008FB58C7F8FBD8EB5877E8EBD89B78B7F97
:1011E00089BF8EB58F7B8EBD89B78F7D89BF8EB548
:1011F00080688EBD8EB5887F8EBD8EB582608EBDB7
:1012000081E00895FC01892B81F026B5422F50E042
:101210005183408397B5292F30E0322F2227242B8A
:10122000352B3183208381E0089583E008959DBDAF
:101230008CBD81E008956115710569F090E0880F1B
:10124000991FFC01EE53F84F71836083FC01E65453
:10125000F84F5183408383E00895813059F028F09E
:10126000823069F0833081F014C089B78F7D89BFE7
:1012700081E0089589B78F7E89BF81E0089589B79D
:101280008F7E89BF81E0089589B78B7F89BF81E018
:10129000089582E00895813059F028F0823069F095
:1012A000833081F014C089B7806289BF80E00895DF
:1012B00089B7806189BF81E0089589B7806189BF5E
:1012C00080E0089589B7846089BF80E0089582E056
:1012D0000895FC019EB597709230A9F028F49923E7
:1012E00049F0913059F027C09430C9F090F0953012
:1012F000E1F021C01182108281E0089581E090E048
:1013000091838083089588E090E09183808381E0D9
:10131000089580E490E09183808381E0089580E0E7
:1013200091E09183808381E0089580E094E091834F
:10133000808381E0089582E00895811105C08EB513
:101340008F7B8EBD81E00895813029F48EB5806455
:101350008EBD81E0089582E00895813059F028F033
:10136000823069F0833081F014C088B7806288BF12
:1013700080E0089588B7806188BF80E0089588B7CD
:10138000886088BF80E0089588B7846088BF80E067
:10139000089582E008951F920F920FB60F921124C4
:1013A0002F933F934F935F936F937F938F939F936D
:1013B000AF93BF93EF93FF93E091C207F091C30700
:1013C000309729F08091BA079091BB070995FF915A
:1013D000EF91BF91AF919F918F917F916F915F91AD
:1013E0004F913F912F910F900FBE0F901F90189526
:1013F0001F920F920FB60F9211242F933F934F938A
:101400005F936F937F938F939F93AF93BF93EF936C
:10141000FF93E091C407F091C507309729F08091C0
:10142000BC079091BD070995FF91EF91BF91AF91D6
:101430009F918F917F916F915F914F913F912F91EC
:101440000F900FBE0F901F9018951F920F920FB61E
:101450000F9211242F933F934F935F936F937F933A
:101460008F939F93AF93BF93EF93FF93E091C60742
:10147000F091C707309729F08091BE079091BF0780
:101480000995FF91EF91BF91AF919F918F917F91BE
:101490006F915F914F913F912F910F900FBE0F90E1
:1014A0001F9018951F920F920FB60F9211242F9331
:1014B0003F934F935F936F937F938F939F93AF93DC
:1014C000BF93EF93FF93E091C807F091C90730975E
:1014D00029F08091C0079091C1070995FF91EF9184
:1014E000BF91AF919F918F917F916F915F914F913C
:1014F0003F912F910F900FBE0F901F901895E09184
:10150000DA07F091DB07309729F08091CA079091B4
:10151000CB0709950895E091DA07F091DB07309742
:1015200029F08091CA079091CB0709950895E09121
:10153000E607F091E707309729F08091D607909160
:10154000D707099508951F920F920FB60F92112495
:101550002F933F934F935F936F937F938F939F93BB
:10156000AF93BF93EF93FF93E091E807F091E90702
:10157000309729F08091D8079091D9070995FF916C
:10158000EF91BF91AF919F918F917F916F915F91FB
:101590004F913F912F910F900FBE0F901F90189574
:1015A0005058BB27AA270E94E80A0C945B0C0E94A3
:1015B0004D0C38F00E94540C20F039F49F3F19F480
:1015C00026F40C944A0C0EF4E095E7FB0C94440CC2
:1015D000E92F0E946C0C58F3BA176207730784074F
:1015E000950720F079F4A6F50C948E0C0EF4E09596
:1015F0000B2EBA2FA02D0B01B90190010C01CA01CD
:10160000A0011124FF27591B99F0593F50F4503E77
:1016100068F11A16F040A22F232F342F4427585F69
:10162000F3CF469537952795A795F0405395C9F781
:101630007EF41F16BA0B620B730B840BBAF0915039
:10164000A1F0FF0FBB1F661F771F881FC2F70EC0D8
:10165000BA0F621F731F841F48F4879577956795AB
:10166000B795F7959E3F08F0B0CF9395880F08F097
:101670009927EE0F9795879508950E94200C08F4FE
:1016800081E008950E94560B0C945B0C0E94540C50
:1016900058F00E944D0C40F029F45F3F29F00C9463
:1016A000440C51110C948F0C0C944A0C0E946C0C3D
:1016B00068F39923B1F3552391F3951B550BBB2781
:1016C000AA2762177307840738F09F5F5F4F220FC6
:1016D000331F441FAA1FA9F335D00E2E3AF0E0E8BD
:1016E00032D091505040E695001CCAF72BD0FE2F07
:1016F00029D0660F771F881FBB1F2617370748079B
:10170000AB07B0E809F0BB0B802DBF01FF27935852
:101710005F4F3AF09E3F510578F00C94440C0C94C6
:101720008F0C5F3FE4F3983ED4F3869577956795E9
:10173000B795F7959F5FC9F7880F911D9695879587
:1017400097F90895E1E0660F771F881FBB1F6217A6
:1017500073078407BA0720F0621B730B840BBA0B64
:10176000EE1F88F7E09508950E94740C88F09F574B
:1017700098F0B92F9927B751B0F0E1F0660F771FB5
:10178000881F991F1AF0BA95C9F714C0B13091F0AB
:101790000E948E0CB1E008950C948E0C672F782F68
:1017A0008827B85F39F0B93FCCF386957795679570
:1017B000B395D9F73EF490958095709561957F4FDC
:1017C0008F4F9F4F0895E89409C097FB3EF4909582
:1017D0008095709561957F4F8F4F9F4F9923A9F00A
:1017E000F92F96E9BB279395F69587957795679599
:1017F000B795F111F8CFFAF4BB0F11F460FF1BC0DD
:101800006F5F7F4F8F4F9F4F16C0882311F096E96F
:1018100011C0772321F09EE8872F762F05C066231D
:1018200071F096E8862F70E060E02AF09A95660FD6
:10183000771F881FDAF7880F9695879597F908958F
:10184000990F0008550FAA0BE0E8FEEF16161706D1
:10185000E807F907C0F012161306E407F50798F039
:10186000621B730B840B950B39F40A2661F0232B52
:10187000242B252B21F408950A2609F4A140A695CE
:101880008FEF811D811D089597F99F6780E870E0B3
:1018900060E008959FEF80EC089500240A941616E6
:1018A000170618060906089500240A94121613064E
:1018B000140605060895092E0394000C11F48823DC
:1018C00052F0BB0F40F4BF2B11F460FF04C06F5FF8
:1018D0007F4F8F4F9F4F089557FD9058440F551FCE
:1018E00059F05F3F71F04795880F97FB991F61F0A2
:1018F0009F3F79F087950895121613061406551F19
:10190000F2CF4695F1DF08C0161617061806991F84
:10191000F1CF86957105610508940895E894BB2779
:1019200066277727CB0197F908950E94A80C0C949D
:101930005B0C0E944D0C38F00E94540C20F0952353
:1019400011F00C94440C0C944A0C11240C948F0C40
:101950000E946C0C70F3959FC1F3950F50E0551FDA
:10196000629FF001729FBB27F00DB11D639FAA27F4
:10197000F00DB11DAA1F649F6627B00DA11D661F43
:10198000829F2227B00DA11D621F739FB00DA11D64
:10199000621F839FA00D611D221F749F3327A00D1E
:1019A000611D231F849F600D211D822F762F6A2FBA
:1019B00011249F5750409AF0F1F088234AF0EE0F1F
:1019C000FF1FBB1F661F771F881F91505040A9F74C
:1019D0009E3F510580F00C94440C0C948F0C5F3F9B
:1019E000E4F3983ED4F3869577956795B795F79588
:1019F000E7959F5FC1F7FE2B880F911D9695879500
:101A000097F90895A1E21A2EAA1BBB1BFD010DC078
:101A1000AA1FBB1FEE1FFF1FA217B307E407F5079E
:101A200020F0A21BB30BE40BF50B661F771F881F7A
:101A3000991F1A9469F760957095809590959B0110
:101A4000AC01BD01CF010895EE0FFF1F0590F49189
:101A5000E02D09940E94350DA59F900DB49F900D27
:101A6000A49F800D911D11240895A29FB001B39FE2
:101A7000C001A39F700D811D1124911DB29F700D97
:0C1A8000811D1124911D0895F894FFCFE2
:101A8C00000000020000000438467265712020201E
:101A9C00202020206B487A00447574792020202067
:101AAC0020202020250000000000003E5B4F5B3E04
:101ABC003E6B4F6B3E1C3E7C3E1C183C7E3C181C07
:101ACC00577D571C1C5E7F5E1C00183C1800FFE7FE
:101ADC00C3E7FF0018241800FFE7DBE7FF30483AA4
:101AEC00060E2629792926407F050507407F052506
:101AFC003F5A3CE73C5A7F3E1C1C08081C1C3E7F8E
:101B0C0014227F22145F5F005F5F06097F017F0054
:101B1C006689956A606060606094A2FFA294080474
:101B2C007E040810207E201008082A1C08081C2A95
:101B3C0008081E101010100C1E0C1E0C30383E38ED
:101B4C0030060E3E0E06000000000000005F000094
:101B5C000007000700147F147F14242A7F2A122305
:101B6C001308646236495620500008070300001C15
:101B7C002241000041221C002A1C7F1C2A08083E1E
:101B8C000808008070300008080808080000606031
:101B9C000020100804023E5149453E00427F40009F
:101BAC0072494949462141494D331814127F102777
:101BBC00454545393C4A49493141211109073649C6
:101BCC00494936464949291E00001400000040349A
:101BDC00000000081422411414141414004122149F
:101BEC000802015909063E415D594E7C1211127CC6
:101BFC007F494949363E414141227F4141413E7F27
:101C0C00494949417F090909013E414151737F0806
:101C1C0008087F00417F41002040413F017F0814AC
:101C2C0022417F404040407F021C027F7F0408100D
:101C3C007F3E4141413E7F090909063E4151215EEB
:101C4C007F09192946264949493203017F01033F7F
:101C5C004040403F1F2040201F3F4038403F63140E
:101C6C0008146303047804036159494D43007F4110
:101C7C0041410204081020004141417F040201024D
:101C8C000440404040400003070800205454784072
:101C9C007F284444383844444428384444287F3806
:101CAC005454541800087E090218A4A49C787F0888
:101CBC0004047800447D40002040403D007F102803
:101CCC00440000417F40007C047804787C080404C4
:101CDC00783844444438FC1824241818242418FC5C
:101CEC007C08040408485454542404043F44243C01
:101CFC004040207C1C2040201C3C4030403C442870
:101D0C001028444C9090907C4464544C4400083609
:101D1C004100000077000000413608000201020477
:101D2C00023C2623263C1EA1A161123A4040207A97
:101D3C0038545455592155557941225454784221DF
:101D4C005554784020545579400C1E527212395516
:101D5C005555593954545459395554545800004513
:101D6C007C410002457D420001457C407D121112F0
:101D7C007DF0282528F07C545545002054547C5483
:101D8C007C0A097F4932494949323A4444443A323F
:101D9C004A4848303A4141217A3A42402078009DE5
:101DAC00A0A07D3D4242423D3D4040403D3C24FF91
:101DBC002424487E4943662B2FFC2F2BFF0929F640
:101DCC0020C0887E090320545479410000447D4191
:101DDC003048484A32384040227A007A0A0A727DEA
:101DEC000D19317D2629292F282629292926304805
:101DFC004D4020380808080808080808382F10C873
:101E0C00ACBA2F102834FA00007B000008142A14F6
:101E1C002222142A14085500550055AA55AA55AA71
:101E2C00FF55FF55FF000000FF00101010FF0014BD
:101E3C001414FF001010FF00FF1010F010F0141419
:101E4C0014FC001414F700FF0000FF00FF1414F43E
:101E5C0004FC141417101F10101F101F1414141F3F
:101E6C0000101010F0000000001F101010101F10B8
:101E7C00101010F010000000FF10101010101010B7
:101E8C001010FF10000000FF140000FF00FF000006
:101E9C001F10170000FC04F414141710171414F47A
:101EAC0004F40000FF00F714141414141414F700B5
:101EBC00F7141414171410101F101F141414F41406
:101ECC001010F010F000001F101F0000001F140075
:101EDC000000FC140000F010F01010FF10FF1414A0
:101EEC0014FF141010101F00000000F010FFFFFF73
:101EFC00FFFFF0F0F0F0F0FFFFFF0000000000FF2C
:101F0C00FF0F0F0F0F0F3844443844FC4A4A4A3431
:101F1C007E02020606027E027E0263554941633848
:101F2C0044443C04407E201E2006027E020299A5F9
:101F3C00E7A5991C2A492A1C4C7201724C304A4D57
:101F4C004D303048784830BC625A463D3E4949498C
:101F5C00007E0101017E2A2A2A2A2A44445F444435
:101F6C0040514A444040444A51400000FF0103E0C4
:101F7C0080FF000008086B6B083612362436060FFB
:101F8C00090F06000018180000001010003040FF68
:101F9C000101001F01011E00191D1712003C3C3CE1
:061FAC003C0000000000F3
:00000001FF
